:060000000A128A117F2E96
:100CC400C034F934A434B034993492348234F834CE
:100CD400803490347E088A007F0882000A128A11C8
:100CE4006C260A128A118000840A04087D060319FE
:100CF4000034FF0A0319FE0A702EAA01AB01831304
:100D04002A30FD000630FE006230FF0020308400EF
:100D14000A128A1170260A128A1183010A128A1190
:100D2400932E831603138601831203138601043062
:100D3400831603138700831203138701C22EC22E66
:100D44000130AA070318AB0A0030AB072B08803A1E
:100D5400FF0080307F02031DB12E64302A02031C81
:100D6400B42EB52EBB2E83120313AA01AB01BB2EE6
:100D7400BB2E831203130719C02EC12EBB2EC22E05
:100D8400831203130719C72EC82EA22EC92E0A12C6
:100D94008A11D3260A128A11C22EC22E0A128A116D
:100DA40000280A30F0000030F100831203132B08EE
:100DB400F301F3072A08F201F2070A128A1126271F
:100DC4000A128A117008F9007908FB000A30F00051
:100DD4000030F100831203132B08F301F3072A08F0
:100DE400F201F2070A128A118C270A128A1170087A
:100DF400F9007908FC008312031307147C08203ED1
:100E040084008313000886004130FA00EE30F900B4
:100E1400F90B0A2FFA0B0A2F64008312031307102D
:100E240087147B08203E8400831300088600413029
:100E3400FA00EE30F900F90B1D2FFA0B1D2F640098
:100E44008312031387100800F601F31F2A2F2B2F98
:100E5400342FF209F309F20A0319F30AF601031411
:100E6400F60D342FF11F372F382F3E2FF009F109DB
:100E7400F00A0319F10A3E2F710870040319432F75
:100E8400442F7A2FF5010314F50D542F013003106C
:100E9400F00DF10DFF3E031D492F0130F4007408DD
:100EA400F507542FF11F572F582F482F5A2F5A2F19
:100EB40071087302031D602F70087202031C632FF4
:100EC400642F6B2F7008F2027108031CF303F30202
:100ED4006B2F01300310F10CF00CFF3E031D6C2F3F
:100EE4000130F502031D772F782F5A2F7A2F7A2F8E
:100EF4007608031D7E2F842FF209F309F20A0319E1
:100F0400F30A842F7308F101F1077208F001F00766
:100F14008B2F0800F601F11F902F912F9A2FF009C3
:100F2400F109F00A0319F10AF6010314F60D9A2FD8
:100F3400F31F9D2F9E2FA82FF209F309F20A03191C
:100F4400F30A0130F4007408F606A82FF701F8013B
:100F5400710870040319AF2FB02FEE2FF50103149D
:100F6400F50DC02F01300310F00DF10DFF3E031DF0
:100F7400B52F0130F4007408F507C02FF11FC32FFB
:100F8400C42FB42FC62FC62F01300310F70DF80D50
:100F9400FF3E031DC72F71087302031DD32F700872
:100FA4007202031CD62FD72FDF2F7008F2027108AC
:100FB400031CF303F3027714DF2F01300310F10C49
:100FC400F00CFF3E031DE02F0130F502031DEB2F53
:100FD400EC2FC62FEE2FEE2F7608031DF22FF82FDD
:100FE400F709F809F70A0319F80AF82F7808F10144
:0C0FF400F1077708F001F007FF2F08005C
:02400E003A3F37
:00000001FF
